S00B00004750532E737265632F
S11300000C9436000C945E000C945E000C945E001C
S11300100C945E000C945E000C945E000C945E00E4
S11300200C945E000C945E000C945E000C945E00D4
S11300300C945E000C945E000C945E000C945E00C4
S11300400C945E000C945E000C945E000C945E00B4
S11300500C945E000C945E000C945E000C945E00A4
S11300600C945E000C945E006000810011241FBE9D
S1130070CFEFD8E0DEBFCDBF11E0A0E0B1E0E6EE07
S1130080F1E002C005900D92A030B107D9F721E04C
S1130090A0E0B1E001C01D92A436B207E1F710E080
S11300A0C6E3D0E004C02197FE010E94EB00C433F4
S11300B0D107C9F70E9488000C94F1000C94000049
S11300C060E875E280E091E00E94C6000895FC01BA
S11300D0E45FFE4F11821082EC59F1091182108203
S11300E032971182108232971182108234971082D3
S11300F01182128213823497108211821282138227
S1130100089560E875E282E391E00E94C6000895D4
S1130110CF93DF93CDB7DEB7C254D1400FB6F89476
S1130120DEBF0FBECDBF60E875E2CE0101960E942E
S1130130C600CE01C3960E946700FFCFCB01A0E0AA
S1130140B0E0880F991FAA1FBB1F880F991FAA1F11
S1130150BB1F9C01AD01220F331F441F551F220FEB
S1130160331F441F551F60E074E284EF90E00E9447
S1130170C900215031093093C5002093C40088E19F
S11301808093C10086E08093C20008950E949E007F
S11301900895A1E21A2EAA1BBB1BFD010DC0AA1FC4
S11301A0BB1FEE1FFF1FA217B307E407F50720F0DC
S11301B0A21BB30BE40BF50B661F771F881F991F57
S11301C01A9469F760957095809590959B01AC01A0
S11301D0BD01CF010895EE0FFF1F0590F491E02DAE
S10901E00994F894FFCF1E
S9030000FC
