S0110000554152545F546573742E73726563D8
S11300000C9434000C9449000C9449000C9449005D
S11300100C9449000C9449000C9449000C94490038
S11300200C9449000C9449000C9449000C94490028
S11300300C9449000C9449000C9449000C94490018
S11300400C9449000C9449000C9449000C94490008
S11300500C9449000C9449000C9449000C944900F8
S11300600C9449000C94490011241FBECFEFD8E032
S1130070DEBFCDBF11E0A0E0B1E0EAE3F1E002C0F1
S113008005900D92A031B107D9F70E948D000C9410
S11300909B000C9400001092C50087E68093C40076
S11300A0E2ECF0E0808186608083E1ECF0E0808126
S11300B0886180830895E0ECF0E0908195FFFDCFA6
S11300C08093C6000895E0ECF0E080818823ECF78B
S11300D08091C6000895EF92FF920F931F93CF93E0
S11300E0DF938C017C01C0E0D0E006C0F701819170
S11300F07F010E945B002196F80101900020E9F73E
S11301003197E01BF10BCE17DF0780F3DF91CF911E
S11301101F910F91FF90EF9008950E944B008CE087
S11301200E945B0080E091E00E946B000E946300EB
S10D01300E945B00FBCFF894FFCFA0
S113013A0A48616C6C6F20576F726C642E0A0A004D
S9030000FC
