:100000000C9463020C9478020C9478020C9478029D
:100010000C9478020C9478020C9478020C94780278
:100020000C9478020C9478020C9478020C94780268
:100030000C9478020C9478020C9478020C94780258
:100040000C9478020C9478020C9478020C94780248
:100050000C9478020C9478020C9478020C94780238
:100060000C9478020C9478022C062C06C102B4027F
:100070002C062C062C062C06A2022C062C062C067E
:100080002C062C06CE02A202A2029F022C06B4026B
:100090002C06A2022C062C06A802A202A202A20290
:1000A000C1021603450631033A031F032203250349
:1000B00045063D0319031C034206280313032E03C0
:1000C0003D033D0342064206370342063D03450613
:1000D0002B0345063D033D033D03340363036303E4
:1000E0006C03750363036303630363037B036303AD
:1000F000630363036303630369037B037B03660397
:100100006303720363037B036303630378037B036B
:100110007B037B036F03E1034D06FC030504EA0345
:10012000ED03F0034D060804E403E7034A06F30376
:10013000DE03F903080408044A064A0602044A06D4
:1001400008044D06F6034D06080408040804FF03DE
:100150002D042D0436043F042D042D042D042D04FC
:1001600045042D042D042D042D042D0433044504D1
:10017000450430042D043C042D0445042D042D04B5
:1001800042044504450445043904AB045506C6043D
:10019000CF04B404B704BA045506D204AE04B104C3
:1001A0005206BD04A804C304D204D2045206520667
:1001B000CC045206D2045506C0045506D204D2041B
:1001C000D204C904F704F70400050905F704F7048D
:1001D000F704F7040F05F704F704F704F704F7042E
:1001E000FD040F050F05FA04F7040605F7040F05D3
:1001F000F704F7040C050F050F050F05030575053A
:100200005D06900599057E05810584055D069C05C2
:1002100078057B055A06870572058D059C059C05AA
:100220005A065A0696055A069C055D068A055D061D
:100230009C059C059C059305C105C105CA05D30510
:10024000C105C105C105C105D905C105C105C10566
:10025000C105C105C705D905D905C405C105D00526
:10026000C105D905C105C105D605D905D905D905E9
:10027000CD052A06F4024006400640064006BE03AD
:1002800088044006520552054006520552054006B4
:10029000520540064006400640064006520540060C
:1002A000400652052A0690062507AB06B4069906B5
:1002B0009C069F062507B706930696062207A20608
:1002C0008E06A806B706B70622072207B106220740
:1002D000B7062507A5062507B706B706B706AE0673
:1002E000D706D706E006E906D706D706D706D7060B
:1002F000EE06D706D706D706D706D706DD06EE06E2
:10030000EE06DA06D706E606D706EE06D706D706C5
:10031000EC06EE06EE06EE06E306AE094A09BD0857
:10032000BD08BD08BD0836092309BD080F090F091E
:10033000BD080F090F09BD080F09BD08BD08BD089C
:10034000BD08BD080F09BD08BD080F09AE09590E4B
:10035000270CA50BA50BA50BA50B1C0C110CA50BB5
:10036000060C060CA50B060C060CA50B060CA50B23
:10037000A50BA50BA50BA50B060CA50BA50B060C39
:10038000590EFB10B70EB50EB50EB50EB50E480FD3
:10039000D90FB50E6A106A10B50E6A106A10B50E44
:1003A0006A10B50EB50EB50EB50EB50E6A10B50EC7
:1003B000B50E6A10FB10B3138611A50BA50BA50B88
:1003C000A50B7B117011A50B65116511A50B6511AE
:1003D0006511A50B6511A50BA50BA50BA50BA50B11
:1003E0006511A50BA50B6511B313DC13E313EA1319
:1003F000F113F813FF1306140D1414141B14221414
:100400002914301437143E14451453145A1461142B
:1004100068146F1476147D1484148B149214991438
:10042000A014A714AE14B514BC14AE094C09BD0831
:10043000BD08BD08BD0838092509BD081109110905
:10044000BD0811091109BD081109BD08BD08BD0885
:10045000BD08BD081109BD08BD081109AE09590E36
:10046000290CA50BA50BA50BA50B1E0C130CA50B9E
:10047000080C080CA50B080C080CA50B080CA50B08
:10048000A50BA50BA50BA50B080CA50BA50B080C24
:10049000590EB3138811A50BA50BA50BA50B7D1148
:1004A0007211A50B67116711A50B67116711A50BD9
:1004B0006711A50BA50BA50BA50BA50B6711A50B2C
:1004C000A50B6711B31311241FBECFEFD8E0DEBF19
:1004D000CDBF11E0A0E0B1E0E6E0FCE202C0059093
:1004E0000D92A231B107D9F70E9433070C9401167F
:1004F0000C9400002F923F924F925F926F927F92E6
:100500008F929F92AF92BF92CF92DF92EF92FF9223
:100510000F931F93CF93DF9300D000D000D0CDB7BF
:10052000DEB76983462F50E0062F10E0F8013197BF
:10053000ED31F10538F4EC5CFF4F0C94FB15EBE06A
:10054000F0E08CC32981293141F4FA0179E103C03B
:100550007CE2ECE2F0E0725229C029812F7E243047
:1005600041F47981FA0103C070E1E0E1F0E07650F6
:100570001DC06981633049F06D3159F4FA017DE1A4
:1005800006C07EE0EEE0F0E002C0FA0173E07450D5
:100590000DC079817F3039F4FA0103C07AE1EAE1D4
:1005A000F0E0725103C07981FA017250FF271E16E4
:1005B0001F060CF055C3DC019E962C919E972F3E92
:1005C00069F09F9620E030E003C02E173F0749F006
:1005D0002F5F3F4F6D916F3EC1F704C020E030E0C8
:1005E00001C09F01270F3DC365E070E0A9818A2EFD
:1005F000912CA0ECB0E049835A83212C0F2EFCE013
:100600007F2EF02D612C312C280F391FF901BE9659
:10061000FC83EB83F4013197ED31F10570F5EF5A6E
:10062000FF4F0C94FB152EE0332D31C3272D362DB3
:100630002EC3272D362D2BC3272D362D28C3272D2E
:10064000362D25C32FE030E022C32FE030E01FC35A
:10065000272D362D1CC32DE230E019C3272D362D52
:1006600016C3272D362D13C3272D362D10C3272D46
:10067000362D0DC321E130E00AC314161506D4F45B
:1006800009811A817C01FFEFEF1AFF0AE0E0F0E038
:100690006F01F70131917F01F6012C9125FFFDCF0C
:1006A0006F01E6ECF0E03083FFEFCF1ADF0AC016EF
:1006B000D1067CF3F4013197ED31F105E0F4E25914
:1006C000FF4F0C94FB15072D162D17C00BE010E003
:1006D00014C00AE110E011C00EE0132D0EC00EE0B0
:1006E000132D0BC000E1122D08C000E1122D05C032
:1006F0000CE210E002C009811A81FC01BE966F0174
:10070000E12CF12C1127402E512EFE83ED83ED813B
:10071000FE81242D352DE016F10624F01216130665
:1007200084F021C02C912223A4F7FE83ED83E6EC14
:10073000F0E02081F60121936F01FFEFEF1AFF0A2D
:10074000E6CF225D3F4F8C01020F131F7F01F7019F
:1007500031912C9125FFFDCF7F01E6ECF0E0308355
:10076000E016F106A1F7EB81FC812081222309F438
:1007700063C26150710909F04DCF60C203E010E01F
:100780006981862E912CA0ECB0E049835A83212CFC
:100790000F2EFCE07F2EF02D612C312C280F391FFD
:1007A000B901625D7F4F7C836B83F4013197ED313A
:1007B000F10570F5E557FF4F0C94FB152EE0332D36
:1007C0006EC2272D362D6BC2272D362D68C2272DE0
:1007D000362D65C2272D362D62C22FE030E05FC274
:1007E0002FE030E05CC2272D362D59C22DE230E0DB
:1007F00056C2272D362D53C2272D362D50C2272DF8
:10080000362D4DC2272D362D4AC221E130E047C298
:1008100014161506CCF4E981FA817C017FEFE71A02
:10082000F70A60E070E06F01F70131917F01F60196
:100830002C9125FFFDCF6F01E6ECF0E030836F5F78
:100840007F4F6C157D0584F3F4013197ED31F1058F
:10085000E0F4E855FF4F0C94FB15272D362D17C0FB
:100860002BE030E014C02AE130E011C02EE0332D3F
:100870000EC02EE0332D0BC020E1322D08C020E148
:10088000322D05C02CE230E002C029813A81FC0102
:10089000BE966F0160E070E07901FF244E2C5F2C62
:1008A000FE83ED83ED81FE81242D352D6E157F05B0
:1008B00024F0121613067CF020C02C912223A4F7FA
:1008C000FE83ED83E6ECF0E02081F60121936F01D9
:1008D0006F5F7F4FE7CF225D3F4FBC01620F731FF9
:1008E0007F01F70131912C9125FFFDCF7F01E6ECCF
:1008F000F0E03083E616F706A1F7EB81FC8120815A
:10090000222309F49DC10150110909F04ECF9AC16B
:1009100004E010E06981862E912CA0ECB0E04983C0
:100920005A83212C0F2EFCE07F2EF02D612C312CD0
:10093000280F391FB901625D7F4F7C836B83F401FF
:100940003197ED31F10570F5EB53FF4F0C94FB152A
:100950002EE0332DACC1272D362DA9C1272D362DE4
:10096000A6C1272D362DA3C1272D362DA0C12FE0DE
:1009700030E09DC12FE030E09AC1272D362D97C180
:100980002DE230E094C1272D362D91C1272D362D33
:100990008EC1272D362D8BC1272D362D88C121E103
:1009A00030E085C114161506CCF4E981FA817C018A
:1009B0007FEFE71AF70A60E070E06F01F70131910D
:1009C0007F01F6012C9125FFFDCF6F01E6ECF0E0F1
:1009D00030836F5F7F4F6C157D0584F3F401319791
:1009E000ED31F105E0F4EE51FF4F0C94FB15672D4E
:1009F000762D17C06BE070E014C06AE170E011C0A2
:100A00006EE0732D0EC06EE0732D0BC060E1722D91
:100A100008C060E1722D05C06CE270E002C069811F
:100A20007A81FC01BE966F01E12CF12C7727462ECE
:100A3000572EFE83ED83ED81FE81242D352DE616A4
:100A4000F70624F01216130684F021C02C912223FD
:100A5000A4F7FE83ED83E6ECF0E02081F60121931C
:100A60006F01FFEFEF1AFF0AE6CF225D3F4FBC0197
:100A7000620F731F7F01F70131912C9125FFFDCF8C
:100A80007F01E6ECF0E030836E157F05A1F7EB8186
:100A9000FC812081222309F4D7C00150110909F0FB
:100AA0004ECFD4C005E010E06981862E912CA0ECD9
:100AB000B0E049835A83212C0F2EFCE07F2EF02DCD
:100AC000612C312C280F391FB901625D7F4F7C8367
:100AD0006B83F4013197ED31F10570F5E150FF4F73
:100AE0000C94FB152EE0332DEAC0272D362DE7C0E0
:100AF000272D362DE4C0272D362DE1C0272D362D8C
:100B0000DEC02FE030E0DBC02FE030E0D8C0272D82
:100B1000362DD5C02DE230E0D2C0272D362DCFC0E6
:100B2000272D362DCCC0272D362DC9C0272D362D8B
:100B3000C6C021E130E0C3C014161506CCF4E9812B
:100B4000FA817C017FEFE71AF70A60E070E06F013D
:100B5000F70131917F01F6012C9125FFFDCF6F0147
:100B6000E6ECF0E030836F5F7F4F6C157D0584F31A
:100B7000F4013197ED31F105E0F4E45EFE4F0C94A1
:100B8000FB15672D762D17C06BE070E014C06AE18D
:100B900070E011C06EE0732D0EC06EE0732D0BC0BF
:100BA00060E1722D08C060E1722D05C06CE270E05A
:100BB00002C069817A81FC01BE966F01E12CF12CA3
:100BC0007727462E572EFE83ED83ED81FE81242D5F
:100BD000352DE616F70624F01216130684F021C010
:100BE0002C912223A4F7FE83ED83E6ECF0E0208134
:100BF000F60121936F01FFEFEF1AFF0AE6CF225DA6
:100C00003F4FBC01620F731F7F01F70131912C919F
:100C100025FFFDCF7F01E6ECF0E030836E157F0508
:100C2000A1F7EB81FC812081222391F00150110971
:100C300009F04FCF80E046C081E044C080E042C070
:100C400081E040C080E03EC081E03CC080E03AC02E
:100C500081E038C081E036C0ECE0F0E07E2FA5CC2A
:100C6000272F30E0FC01E20FF31FC5A4D12CFAE1DD
:100C7000CF16D10428F4F601E75CFE4F0C94FB1567
:100C800080E020C020E1322D02C02DE030E089015B
:100C90001127F8CC20E1322D02C02DE030E0F9011F
:100CA000FF27BBCD20E1322D02C02DE030E0F9015D
:100CB000FF277DCE20E1322D02C02DE030E0F9018A
:100CC000FF273FCF26960FB6F894DEBF0FBECDBFED
:100CD000DF91CF911F910F91FF90EF90DF90CF9018
:100CE000BF90AF909F908F907F906F905F904F904C
:100CF0003F902F900895BF92CF92DF92EF92FF9294
:100D00000F931F93CF93DF938C01FB013197ED314C
:100D1000F10568F5ED5AFE4F0C94FB159B0197C049
:100D20002CE030E094C02CE030E091C02CE030E0CA
:100D30008EC02CE030E08BC02FE030E088C02FE088
:100D400030E085C02CE030E082C02DE230E07FC092
:100D50002CE030E07CC02CE030E079C02CE030E0CA
:100D600076C02CE030E073C021E130E070C09B0120
:100D700033271216130694F4D801119640E050E080
:100D8000E0ECF0E0C6ECD0E08D91908195FFFDCFD6
:100D900088834F5F5F4F42175307B4F3FB013197CE
:100DA000ED31F105D8F4E059FE4F0C94FB156CE0E1
:100DB00070E014C06BE070E011C06AE170E00EC03A
:100DC0006EE070E00BC06EE070E008C060E170E0C3
:100DD00005C060E170E002C06CE270E0D8019E9650
:100DE0007D0140E050E07727C0ECD0E0B62E872FA1
:100DF0000F2EF6ECCF2ED12CF02D2B2D382F4617A1
:100E0000570724F01216130664F023C09881992323
:100E1000A4F7F6019081F70191937F014F5F5F4F37
:100E2000ECCF225D3F4F200F311FE0ECF0E0C6EC2D
:100E3000D0E09D91808185FFFDCF9883A217B307F5
:100E4000C1F707C020E130E002C02DE030E03327D9
:100E500093CFDF91CF911F910F91FF90EF90DF9093
:100E6000CF90BF900895CF93DF93CDB7DEB7C95C25
:100E7000D1090FB6F894DEBF0FBECDBF45EC50E0F0
:100E8000DA011C9224EC30E077E6F9017083A1ECE2
:100E9000B0E098E99C9302EC10E086E0F8018083D2
:100EA000FA01108260E1F90160839C93F80180836C
:100EB000FA011082F90170839C93F8018083FA0192
:100EC0001082F90160839C93D8018C938FEE8A8302
:100ED00091E09B838FEF8C838D838E838F83BFEF15
:100EE000EDEBFAE0B150E040F040E1F700C0000067
:100EF0009887198687E08A8783E18B871C861D8601
:100F00001E861F86188A8BE1898B9E012E5E3F4FBD
:100F1000FE01329680EC90E066EC70E04191DC01DD
:100F20005C9155FFFCCFDB014C932E173F07B1F7C7
:100F3000BE01615D7F4F80E090E0E0ECF0E026ECE8
:100F400030E04081442344F0408144232CF08C3035
:100F50009105D4F30C94D014D9014C91DB014D933D
:100F6000BD0101968C30910561F70C94D01421914C
:100F7000DC013C9135FFFCCFDA012C93E415F5053B
:100F8000B1F763E1CE0101960E947A0281E0888781
:100F9000198685E08A878EE08B8784E08C8786E0DF
:100FA0008D871E868DE18F878E01005F1F4FFE01AA
:100FB000329680EC90E046EC50E02191DC013C91CF
:100FC00035FFFCCFDA012C930E171F07B1F7BE01D6
:100FD000615D7F4F80E090E0E0ECF0E026EC30E0F7
:100FE0004081442344F0408144232CF08C3091050F
:100FF000D4F30C94DC14D9014C91DB014D93BD0169
:1010000001968C30910561F70C94DC142191DC0180
:101010003C9135FFFCCFDA012C93E415F505B1F7CF
:101020006EE0CE0101960E947A0281E088871986DF
:1010300095E09A872EE02B879C878D871E8689E115
:101040008F87FE01329680EC90E046EC50E02191D3
:10105000DC013C9135FFFCCFDA012C930E171F0702
:10106000B1F7BE01615D7F4F80E090E0E0ECF0E021
:1010700026EC30E04081442344F0408144232CF0AE
:101080008C309105D4F30C94E414D9014C91DB011C
:101090004D93BD0101968C30910561F70C94E414D9
:1010A0002191DC013C9135FFFCCFDA012C93E41552
:1010B000F505B1F76EE0CE0101960E947A0281E05B
:1010C0008887198685E08A878EE08B8786E08C8703
:1010D0001D861E8689E18F87FE01329680EC90E0A6
:1010E00046EC50E02191DC013C9135FFFCCFDA0168
:1010F0002C930E171F07B1F7BE01615D7F4F80E093
:1011000090E0E0ECF0E026EC30E04081442344F055
:10111000408144232CF08C309105D4F30C94EC14D2
:10112000D9014C91DB014D93BD0101968C309105A5
:1011300061F70C94EC142191DC013C9135FFFCCF5C
:10114000DA012C93E415F505B1F76EE0CE010196B6
:101150000E947A026E01BEE0CB0ED11C00EC10E0C2
:101160000F2EF6ECEF2EF12CF02D4E01EFE08E0E4F
:10117000911C3E01F1E16F0E711C81E08887198698
:1011800093E09A878B871C8685E08D871601FE0188
:1011900032968191D8019C9195FFFCCFD7018C9319
:1011A000EC15FD05B1F7FE01BF9680E090E0D80197
:1011B0002C9122234CF0D8012C9122232CF08C303E
:1011C0009105CCF30C94F414D7012C912193019642
:1011D0008C30910561F70C94F4148191D8019C91A5
:1011E00095FFFCCFD7018C93E415F505B1F70C946E
:1011F000F8148C30910511F40C940315019621918B
:101200002F3EB9F70C94031588AD90E08A31910513
:1012100008F0B3CFFC01E357FE4F0C94FB158AE0B6
:1012200090E00F2EF5E0AF2EB12CF02DEFE2F0E0C4
:10123000EC0FFD1FE80FF91FCA53DF4FF983E88356
:10124000C65CD04077C08AE090E06894AA24A2F8F7
:10125000B12C2FE230E02C0F3D1F280F391FCA534D
:10126000DF4F39832883C65CD04050C08AE090E0CD
:101270000F2EF3E0AF2EB12CF02D4FE250E04C0FCB
:101280005D1F480F591FCA53DF4F59834883C65CFF
:10129000D04028C08AE090E00F2EF5E0AF2EB12CB0
:1012A000F02D6FE270E06C0F7D1F680F791FCA533D
:1012B000DF4F79836883C65CD04061E070E0CE0187
:1012C00001960E947B06CA53DF4FA881B981C65C94
:1012D000D0408C91882309F441C0B1E0AB1AB10829
:1012E00061F74BCF61E070E0CE0101960E947B0672
:1012F000CA53DF4FE881F981C65CD04080818823E2
:1013000069F1F1E0AF1AB10869F737CF61E070E039
:10131000CE0101960E947B06CA53DF4FA881B98196
:10132000C65CD0408C918823C9F0B1E0AB1AB108FB
:1013300069F723CF61E070E0CE0101960E947B0641
:10134000CA53DF4FE881F981C65CD0408081882391
:1013500029F0F1E0AF1AB10869F70FCF198684E0E0
:101360008A8782E08B8781E08C871D8688E08E8764
:101370005401FE0132968191D8019C9195FFFCCFDA
:10138000D7018C938E169F06B1F7FE01BF9680E0C1
:1013900090E0D8012C9122234CF0D8012C912223EB
:1013A0002CF08C309105CCF30C941715D7012C91AF
:1013B000219301968C30910561F70C94171581915A
:1013C000D8019C9195FFFCCFD7018C93E415F505CE
:1013D000B1F762E0CE0101960E947A02882309F4F7
:1013E000CCCE23E030E041E063E055E0BFEFEDE339
:1013F000F9E4B150E040F040E1F700C00000488758
:1014000019866A874B871C865D87FE01329681911B
:10141000D8019C9195FFFCCFD7018C93EC15FD056D
:10142000B1F7FE01BF9680E090E0D8017C91772370
:101430004CF0D8017C9177232CF08C309105CCF3C3
:101440000C941B15D7017C91719301968C309105FA
:1014500061F70C941B158191D8019C9195FFFCCFED
:10146000D7018C93E415F505B1F72150310909F046
:10147000BDCF81E08887198693E09A878B871C8689
:1014800085E08D87FE0132968191D8019C9195FF70
:10149000FCCFD7018C93EC15FD05B1F7FE01BF968B
:1014A00080E090E0D8012C9122234CF0D8012C91BF
:1014B00022232CF08C309105CCF30C941F15D7010E
:1014C0002C91219301968C30910561F70C941F1596
:1014D0008191D8019C9195FFFCCFD7018C93E415A5
:1014E000F505B1F761E0CE0101960E947A028823EA
:1014F00009F443CE198684E08A8782E08B878C8743
:101500001D8688E08E87FE0132968191D8019C91DC
:1015100095FFFCCFD7018C938E169F06B1F7FE0185
:10152000BF9680E090E0D8012C9122234CF0D801A6
:101530002C9122232CF08C309105CCF30C942315A4
:10154000D7012C91219301968C30910561F70C9471
:1015500023158191D8019C9195FFFCCFD7018C93E5
:10156000E415F505B1F762E0CE0101960E947A021A
:10157000882309F402CE198683E08A8785E08B8769
:101580001F8689E0888BFE0132968191D8019C915B
:1015900095FFFCCFD7018C93EC15FD05B1F7FE014B
:1015A000BF9680E090E0D8012C9122234CF0D80126
:1015B0002C9122232CF08C309105CCF30C94271520
:1015C000D7012C91219301968C30910561F70C94F1
:1015D00027158191D8019C9195FFFCCFD7018C9361
:1015E000E415F505B1F765E0CE0101960E947A0297
:1015F000882309F4C2CD198686E08A878B8781E02B
:101600008C871D8684E08E871F8682E1888BFE0191
:1016100032968191D8019C9195FFFCCFD7018C9394
:10162000E615F705B1F7FE01BF9680E090E0D8011E
:101630002C9122234CF0D8012C9122232CF08C30B9
:101640009105CCF30C942B15D7012C912193019685
:101650008C30910561F70C942B158191D8019C91E8
:1016600095FFFCCFD7018C93E415F505B1F70C94E9
:101670002F1525E030E041E013E055E0E0ECF0E02C
:101680000F2EF6ECEF2EF12CF02DBFEF6DE379E489
:10169000B15060407040E1F700C0000048871986F3
:1016A0001A874B871C865D87CE010296DC016D91FF
:1016B000CD01708175FFFDCFD7016C938215930525
:1016C000A9F7BE01615D7F4F80E090E000810023BB
:1016D00044F0008100232CF08C309105D4F30C945D
:1016E0003E15D7010C91DB010D93BD0101968C30A5
:1016F000910561F70C943E15DC016D91CD0170816F
:1017000075FFFDCFD7016C9384159505A9F721507E
:10171000310909F0BACFA0ECB0E086EC90E07E0190
:10172000E3E1EE0EF11C9E01215C3F4FDD24D394DA
:101730000F2EFAE0CF2EF02D912C6894662463F8DA
:10174000CA53DF4F8880C65CD040FFEF41EE54E0C3
:10175000F15040405040E1F700C00000D8861986A3
:1017600063E06A87DB861C8675E07D87FE01329622
:10177000BF01FB015191BF014C9145FFFDCFFC0121
:10178000508362157305A9F7FE01BF9660E070E013
:101790008F014C91442354F0F8014C9144232CF0D8
:1017A0006C307105D4F30C9442158F01FC0140811B
:1017B000F80141938F016F5F7F4F6C30710549F7DE
:1017C0000C944215FB015191BF014C9145FFFDCF97
:1017D000FC01508364157505A9F70C9447154C302E
:1017E000510511F40C9452154F5F5F4F61916F3E9C
:1017F000B1F70C94521548AD50E04A31510508F04C
:10180000A4CFFA01E955FE4F0C94FB150C2D192DB0
:1018100065E070E04FE250E04C0F5D1F040F151FB4
:10182000C0C10C2D192D64E070E0EFE2F0E0EC0F88
:10183000FD1F0E0F1F1F2BC10C2D192D63E070E033
:101840004FE250E04C0F5D1F040F151F95C00C2D8B
:10185000192D65E070E0EFE2F0E0EC0FFD1F0E0FD8
:101860001F1FFE013296C853DF4FF983E883C85C1F
:10187000D040C853DF4FE881F981C85CD040519116
:10188000C853DF4FF983E883C85CD0404C9145FFD3
:10189000FDCFC853DF4FF983E883C85CD040FC011B
:1018A0005083C853DF4F48815981C85CD0404215EE
:1018B0005305F9F6FE01BF9640E050E0C853DF4FF4
:1018C000F983E883C85CD0407C907720A4F0C853AB
:1018D000DF4FE881F981C85CD0407C9077202CF004
:1018E0004C305105D4F30C946715C853DF4FF9837E
:1018F000E883C85CD040FC017080C853DF4FE881AA
:10190000F981C85CD0407192C853DF4FF983E883F6
:10191000C85CD0404F5F5F4F4C305105A9F60C9426
:101920006715C853DF4FE881F981C85CD0405191F9
:10193000C853DF4FF983E883C85CD0404C9145FF22
:10194000FDCFC853DF4FF983E883C85CD040FC016A
:101950005083C853DF4F48815981C85CD04044153B
:101960005505F9F6F8014081442309F4A2C16150FC
:10197000710909F076CFE9CEFE013296C853DF4FE8
:10198000F983E883C85CD040C853DF4FE881F98110
:10199000C85CD0405191C853DF4FF983E883C85CDD
:1019A000D0404C9145FFFDCFC853DF4FF983E8830A
:1019B000C85CD040FC015083C853DF4F4881598137
:1019C000C85CD04042155305F9F6FE01BF9640E0D1
:1019D00050E0C853DF4FF983E883C85CD0407C9067
:1019E0007720A4F0C853DF4FE881F981C85CD0406C
:1019F0007C9077202CF04C305105D4F30C94711569
:101A0000C853DF4FF983E883C85CD040FC01708085
:101A1000C853DF4FE881F981C85CD0407192C85348
:101A2000DF4FF983E883C85CD0404F5F5F4F4C3095
:101A30005105A9F60C947115C853DF4FE881F9815F
:101A4000C85CD0405191C853DF4FF983E883C85C2C
:101A5000D0404C9145FFFDCFC853DF4FF983E88359
:101A6000C85CD040FC015083C853DF4F4881598186
:101A7000C85CD04044155505F9F6F801408144236F
:101A800009F417C16150710909F076CF5ECEFE01ED
:101A90003296C853DF4FF983E883C85CD040C853FF
:101AA000DF4FE881F981C85CD0405191C853DF4FC6
:101AB000F983E883C85CD0404C9145FFFDCFC85303
:101AC000DF4FF983E883C85CD040FC015083C853E2
:101AD000DF4F48815981C85CD04042155305F9F663
:101AE000FE01BF9640E050E0C853DF4FF983E88322
:101AF000C85CD0407C907720A4F0C853DF4FE881C9
:101B0000F981C85CD0407C9077202CF04C30510596
:101B1000D4F30C947B15C853DF4FF983E883C85C7A
:101B2000D040FC017080C853DF4FE881F981C85C68
:101B3000D0407192C853DF4FF983E883C85CD0402E
:101B40004F5F5F4F4C305105A9F6D5C7C853DF4FE3
:101B5000E881F981C85CD0405191C853DF4FF983C7
:101B6000E883C85CD0404C9145FFFDCFC853DF4FA0
:101B7000F983E883C85CD040FC015083C853DF4F31
:101B800048815981C85CD04044155505F9F6F801E3
:101B90004081442309F48DC06150710909F077CF69
:101BA000D4CDFE013296C853DF4FF983E883C85C79
:101BB000D040C853DF4FE881F981C85CD0405191D3
:101BC000C853DF4FF983E883C85CD0404C9145FF90
:101BD000FDCFC853DF4FF983E883C85CD040FC01D8
:101BE0005083C853DF4F48815981C85CD0404215AB
:101BF0005305F9F6FE01BF9640E050E0C853DF4FB1
:101C0000F983E883C85CD0407C9077209CF0C8536F
:101C1000DF4FE881F981C85CD0407C90772024F0C8
:101C20004C305105D4F370C7C853DF4FF983E883B4
:101C3000C85CD040FC017080C853DF4FE881F98157
:101C4000C85CD0407192C853DF4FF983E883C85C09
:101C5000D0404F5F5F4F4C305105B1F655C7C85368
:101C6000DF4FE881F981C85CD0405191C853DF4F04
:101C7000F983E883C85CD0404C9145FFFDCFC85341
:101C8000DF4FF983E883C85CD040FC015083C85320
:101C9000DF4F48815981C85CD04044155505F9F69D
:101CA000F8014081442329F06150710909F079CF8E
:101CB0004CCD1986F4E0FA8742E04B87DC861D861E
:101CC0006E86FE013296BF01FB015191BF014C911E
:101CD00045FFFDCFFC015083A616B706A9F7FE010C
:101CE000BF9660E070E08F014C9144234CF0F80106
:101CF0004C91442324F06C307105D4F30EC78F014E
:101D0000FC014081F80141938F016F5F7F4F6C3080
:101D1000710551F702C7FB015191BF014C9145FF7D
:101D2000FDCFFC01508364157505A9F7FAC64C3048
:101D3000510541F04F5F5F4F61916F3EC1F702C0A7
:101D400040E050E00AE0040F10E0EEE2F0E0EC0FBB
:101D5000FD1FE00FF11F408150E04A31510528F48A
:101D6000FA01EF53FE4F0C94FB1540E053C265E0BF
:101D700070E04FE250E04C0F5D1F040F151FFE0195
:101D80003296C853DF4FF983E883C85CD040C8530C
:101D9000DF4FE881F981C85CD0405191C853DF4FD3
:101DA000F983E883C85CD0404C9145FFFDCFC85310
:101DB000DF4FF983E883C85CD040FC015083C853EF
:101DC000DF4F48815981C85CD040A416B506F9F6AA
:101DD000FE01BF9640E050E0C853DF4FF983E8832F
:101DE000C85CD0407C9077209CF0C853DF4FE881DE
:101DF000F981C85CD0407C90772024F04C305105AC
:101E0000D4F398C6C853DF4FF983E883C85CD04049
:101E1000FC017080C853DF4FE881F981C85CD04075
:101E20007192C853DF4FF983E883C85CD0404F5F9D
:101E30005F4F4C305105B1F67DC6C853DF4FE88186
:101E4000F981C85CD0405191C853DF4FF983E883D2
:101E5000C85CD0404C9145FFFDCFC853DF4FF9839C
:101E6000E883C85CD040FC015083C853DF4F4881F1
:101E70005981C85CD04044155505F9F6F8014081F8
:101E8000442309F4BAC16150710909F078CFB7C190
:101E900063E070E04FE250E04C0F5D1F040F151F30
:101EA000FE013296C853DF4FF983E883C85CD04007
:101EB000C853DF4FE881F981C85CD0405191C853C5
:101EC000DF4FF983E883C85CD0404C9145FFFDCFDC
:101ED000C853DF4FF983E883C85CD040FC015083CE
:101EE000C853DF4F48815981C85CD0404A155B0513
:101EF000F9F6FE01BF9640E050E0C853DF4FF9838A
:101F0000E883C85CD0407C9077209CF0C853DF4FBA
:101F1000E881F981C85CD0407C90772024F04C3077
:101F20005105D4F310C6C853DF4FF983E883C85C6A
:101F3000D040FC017080C853DF4FE881F981C85C54
:101F4000D0407192C853DF4FF983E883C85CD0401A
:101F50004F5F5F4F4C305105B1F6F5C5C853DF4FA9
:101F6000E881F981C85CD0405191C853DF4FF983B3
:101F7000E883C85CD0404C9145FFFDCFC853DF4F8C
:101F8000F983E883C85CD040FC015083C853DF4F1D
:101F900048815981C85CD04044155505F9F6F801CF
:101FA0004081442309F42DC16150710909F078CFB3
:101FB0002AC164E070E04FE250E04C0F5D1F040F57
:101FC000151FFE013296C853DF4FF983E883C85CC2
:101FD000D040C853DF4FE881F981C85CD0405191AF
:101FE000C853DF4FF983E883C85CD0404C9145FF6C
:101FF000FDCFC853DF4FF983E883C85CD040FC01B4
:102000005083C853DF4F48815981C85CD0404A157E
:102010005B05F9F6FE01BF9640E050E0C853DF4F84
:10202000F983E883C85CD0407C9077209CF0C8534B
:10203000DF4FE881F981C85CD0407C90772024F0A4
:102040004C305105D4F388C5C853DF4FF983E8837A
:10205000C85CD040FC017080C853DF4FE881F98133
:10206000C85CD0407192C853DF4FF983E883C85CE5
:10207000D0404F5F5F4F4C305105B1F66DC5C8532E
:10208000DF4FE881F981C85CD0405191C853DF4FE0
:10209000F983E883C85CD0404C9145FFFDCFC8531D
:1020A000DF4FF983E883C85CD040FC015083C853FC
:1020B000DF4F48815981C85CD04044155505F9F679
:1020C000F8014081442309F4A0C06150710909F06E
:1020D00078CF9DC065E070E04FE250E04C0F5D1F8F
:1020E000040F151FFE013296C853DF4FF983E883B2
:1020F000C85CD040C853DF4FE881F981C85CD0404C
:102100005191C853DF4FF983E883C85CD0404C91AC
:1021100045FFFDCFC853DF4FF983E883C85CD0404B
:10212000FC015083C853DF4F48815981C85CD040BF
:10213000A416B506F9F6FE01BF9640E050E0C8537C
:10214000DF4FF983E883C85CD0407C9077209CF017
:10215000C853DF4FE881F981C85CD0407C9077207C
:1021600024F04C305105D4F300C5C853DF4FF98338
:10217000E883C85CD040FC017080C853DF4FE88121
:10218000F981C85CD0407192C853DF4FF983E8836E
:10219000C85CD0404F5F5F4F4C305105B1F6E5C48D
:1021A000C853DF4FE881F981C85CD0405191C853D2
:1021B000DF4FF983E883C85CD0404C9145FFFDCFE9
:1021C000C853DF4FF983E883C85CD040FC015083DB
:1021D000C853DF4F48815981C85CD040441555052C
:1021E000F9F6F80140814423A1F06150710909F02A
:1021F00079CF40E00FC0482D0DC0482D0BC040E006
:1022000009C0482D07C040E005C0482D03C040E08C
:1022100001C0482D442309F498CA19866A86F4E05F
:10222000FB87DC861D861E861F864FEF488BD98A6A
:102230005DE05A8BFE013296BF01FB015191BF0157
:102240004C9145FFFDCFFC015083E616F706A9F738
:10225000FE01BF9660E070E08F014C9144234CF08A
:10226000F8014C91442324F060317105D4F386C405
:102270008F01FC014081F80141938F016F5F7F4F17
:102280006031710551F77AC4FB015191BF014C9146
:1022900045FFFDCFFC01508362177307A9F772C495
:1022A0004031510509F477C44F5F5F4F61916F3E34
:1022B000B9F771C448AD50E04A31510508F045CA3C
:1022C000FA01E552FE4F0C94FB150C2D192D65E01B
:1022D00070E04FE250E04C0F5D1F040F151FBAC1B4
:1022E0000C2D192D64E070E0EFE2F0E0EC0FFD1F23
:1022F0000E0F1F1F26C10C2D192D63E070E04FE259
:1023000050E04C0F5D1F040F151F92C00C2D192DAE
:1023100045E050E06FE270E06C0F7D1F060F171F65
:10232000FE013296C853DF4FF983E883C85CD04082
:10233000C853DF4FE881F981C85CD0407191C85320
:10234000DF4FF983E883C85CD0406C9165FFFDCF17
:10235000C853DF4FF983E883C85CD040FC01708329
:10236000C853DF4F68817981C85CD040E616F70614
:10237000F9F6FE01BF96C853DF4FF983E883C85CC6
:10238000D0406C9166237CF0C853DF4FE881F9811F
:10239000C85CD0406C916623ECF7C853DF4FF983DB
:1023A000E883C85CD040FC016081C853DF4FE881FE
:1023B000F981C85CD0406193C853DF4FF983E8834B
:1023C000C85CD040E217F307E1F6FE01BF96C853A0
:1023D000DF4FF983E883C85CD040C853DF4FE88102
:1023E000F981C85CD0407191C853DF4FF983E8830D
:1023F000C85CD0406C9165FFFDCFC853DF4FF983B7
:10240000E883C85CD040FC017083C853DF4F68810B
:102410007981C85CD04062177307F9F6F8016081D2
:10242000662309F4A0C14150510909F079CF8DC943
:10243000FE013296C853DF4FF983E883C85CD04071
:10244000C853DF4FE881F981C85CD0405191C8532F
:10245000DF4FF983E883C85CD0404C9145FFFDCF46
:10246000C853DF4FF983E883C85CD040FC01508338
:10247000C853DF4F48815981C85CD040E416F50647
:10248000F9F6FE01BF9640E050E0C853DF4FF983F4
:10249000E883C85CD0407C9077209CF0C853DF4F25
:1024A000E881F981C85CD0407C90772024F04031ED
:1024B0005105D4F385C3C853DF4FF983E883C85C63
:1024C000D040FC017080C853DF4FE881F981C85CBF
:1024D000D0407192C853DF4FF983E883C85CD04085
:1024E0004F5F5F4F40315105B1F66AC3C853DF4FAC
:1024F000E881F981C85CD0405191C853DF4FF9831E
:10250000E883C85CD0404C9145FFFDCFC853DF4FF6
:10251000F983E883C85CD040FC015083C853DF4F87
:1025200048815981C85CD04042175307F9F6F80139
:102530004081442309F417C16150710909F078CF33
:1025400004C9FE013296C853DF4FF983E883C85CA3
:10255000D040C853DF4FE881F981C85CD040519129
:10256000C853DF4FF983E883C85CD0404C9145FFE6
:10257000FDCFC853DF4FF983E883C85CD040FC012E
:102580005083C853DF4F48815981C85CD040E4165E
:10259000F506F9F6FE01BF9640E050E0C853DF4F64
:1025A000F983E883C85CD0407C9077209CF0C853C6
:1025B000DF4FE881F981C85CD0407C90772024F01F
:1025C00040315105D4F305C3C853DF4FF983E88385
:1025D000C85CD040FC017080C853DF4FE881F981AE
:1025E000C85CD0407192C853DF4FF983E883C85C60
:1025F000D0404F5F5F4F40315105B1F6EAC2C8533A
:10260000DF4FE881F981C85CD0405191C853DF4F5A
:10261000F983E883C85CD0404C9145FFFDCFC85397
:10262000DF4FF983E883C85CD040FC015083C85376
:10263000DF4F48815981C85CD04042175307F9F6F3
:10264000F8014081442309F48EC06150710909F0FA
:1026500078CF7BC8FE013296C853DF4FF983E883F9
:10266000C85CD040C853DF4FE881F981C85CD040D6
:102670005191C853DF4FF983E883C85CD0404C9137
:1026800045FFFDCFC853DF4FF983E883C85CD040D6
:10269000FC015083C853DF4F48815981C85CD0404A
:1026A0004E155F05F9F6FE01BF9640E050E0C853B5
:1026B000DF4FF983E883C85CD0407C9077209CF0A2
:1026C000C853DF4FE881F981C85CD0407C90772007
:1026D00024F040315105D4F385C2C853DF4FF9834C
:1026E000E883C85CD040FC017080C853DF4FE881AC
:1026F000F981C85CD0407192C853DF4FF983E883F9
:10270000C85CD0404F5F5F4F40315105B1F66AC29F
:10271000C853DF4FE881F981C85CD0405191C8535C
:10272000DF4FF983E883C85CD0404C9145FFFDCF73
:10273000C853DF4FF983E883C85CD040FC01508365
:10274000C853DF4F48815981C85CD04042175307B6
:10275000F9F6F8014081442331F06150710909F024
:1027600079CF0C94A50B1AAD112311F40C94A50B81
:102770004C9145FFFDCF50E2FC015083E1E0F1E0D8
:1027800064E53F014C9145FFFDCFFC016083F301FF
:1027900061913F016111F6CF4C9145FFFDCF50E2B1
:1027A000FC015083512F52955F70452F50E0FA0184
:1027B000EB50FE4F0C94FB155C9155FFFDCF50E3A1
:1027C000FC01508368C05C9155FFFDCF51E3FC01D3
:1027D000508361C05C9155FFFDCF52E3FC015083F3
:1027E0005AC05C9155FFFDCF53E3FC01508353C0A9
:1027F0005C9155FFFDCF54E3FC0150834CC05C91CC
:1028000055FFFDCF55E3FC01508345C05C9155FF5A
:10281000FDCF56E3FC0150833EC05C9155FFFDCFD8
:1028200057E3FC01508337C05C9155FFFDCF58E35F
:10283000FC01508330C05C9155FFFDCF59E3FC0192
:10284000508329C05C9155FFFDCF51E4FC015083BA
:1028500022C05C9155FFFDCF52E4FC0150831BC0A8
:102860005C9155FFFDCF53E4FC01508314C05C9193
:1028700055FFFDCF54E4FC0150830DC05C9155FF22
:10288000FDCF55E4FC01508306C05C9155FFFDCFA0
:1028900056E4FC015083412F4F7050E0FA01EB5F8A
:1028A000FD4F0C94FB154C9145FFFDCF40E3FC011F
:1028B000408368C04C9145FFFDCF41E3FC0140835C
:1028C00061C04C9145FFFDCF42E3FC0140835AC0FB
:1028D0004C9145FFFDCF43E3FC01408353C04C9135
:1028E00045FFFDCF44E3FC0140834CC04C9145FFC4
:1028F000FDCF45E3FC01408345C04C9145FFFDCF32
:1029000046E3FC0140833EC04C9145FFFDCF47E3C9
:10291000FC01408337C04C9145FFFDCF48E3FC01EB
:10292000408330C04C9145FFFDCF49E3FC0140831B
:1029300029C04C9145FFFDCF41E4FC01408322C0FA
:102940004C9145FFFDCF42E4FC0140831BC04C91FC
:1029500045FFFDCF43E4FC01408314C04C9145FF8B
:10296000FDCF44E4FC0140830DC04C9145FFFDCFF9
:1029700045E4FC01408306C04C9145FFFDCF46E491
:10298000FC0140834C9145FFFDCF4CE2FC014083AC
:102990004C9145FFFDCF40E2FC0140830C949D0B20
:1029A0002E01FBE34F0E511CFE01BF9680EC90E020
:1029B00046EC50E00C94B707FE01BF9680EC90E027
:1029C00046EC50E00C940608FE01BF9680EC90E0C7
:1029D00046EC50E00C945008FE01BF9680EC90E06D
:1029E00046EC50E00C949B08FE01BF960C94ED0859
:1029F0008FA58F3E11F40C940409FE01F09680E03F
:102A000090E00C94FE08865F90E0EEE2F0E0EC0FC0
:102A1000FD1FE80FF91F408150E04A31510510F0C9
:102A20000C94BD08FA01EB5EFD4F0C94FB15FE0102
:102A3000BF960C94DF09FE01BF960C942B0AFE0191
:102A4000BF960C94680AFE01BF960C94A90AFE0179
:102A5000BF960C94E90AFE01BF960C942D0B66E01C
:102A6000CE0101960E947A02CA53DF4F8883C65C6A
:102A7000D04081110C94390B0C94BD08CE018F9677
:102A80000C947C0BFE01BF96BF010C94E20B4FA58A
:102A90004F3E11F40C94FB0BFE01F09640E050E029
:102AA0000C94F40B0AE0040F10E0EEE2F0E0EC0FFF
:102AB000FD1FE00FF11F408150E04A31510510F039
:102AC0000C94A50BFA01E15DFD4F0C94FB15FE0182
:102AD000BF96C853DF4FF983E883C85CD0400C949D
:102AE000910CFE01BF96C853DF4FF983E883C85CA1
:102AF000D0400C941C0DFE01BF96C853DF4FF983E4
:102B0000E883C85CD04022C8FE01BF96C853DF4F9F
:102B1000F983E883C85CD040A2C8FE01BF96BF011C
:102B2000FAC84FA54F3E09F40BC9FE01F09640E0EC
:102B300050E000C9FE01BF96C853DF4FF983E88318
:102B4000C85CD0407AC9FE01BF96C853DF4FF983F5
:102B5000E883C85CD04002CAFE01BF96C853DF4F6D
:102B6000F983E883C85CD0408ACAFE01BF96C85387
:102B7000DF4FF983E883C85CD04012CBFE01BF96DB
:102B8000BF0182CB4FA54F3E09F494CBFE01F096D6
:102B900040E050E089CB0AE0040F10E0EEE2F0E004
:102BA000EC0FFD1FE00FF11F408150E04A3151054D
:102BB00010F00C94A50BFA01E75BFD4F0C94FB158C
:102BC000FE01BF96C853DF4FF983E883C85CD0404D
:102BD0008DCCFE01BF96C853DF4FF983E883C85CF4
:102BE000D0400DCDFE01BF96C853DF4FF983E88377
:102BF000C85CD0408DCDEE0FFF1F0590F491E02D05
:062C00000994F894FFCFD7
:102C06005468652046696E67657220496420697359
:022C16003A0082
:00000001FF
