:100000000C9444000C9459000C9459000C94590021
:100010000C9459000C9459000C9459000C945900FC
:100020000C9459000C9459000C9459000C945900EC
:100030000C9459000C9459000C9459000C945900DC
:100040000C9459000C9459000C9459000C945900CC
:100050000C9459000C9459000C9459000C945900BC
:100060000C9459000C945900A703AB03AF03B303DE
:10007000B703BB03BF03C303C703CB03CF03D30340
:10008000D703DB03DF03E30311241FBECFEFD8E068
:10009000DEBFCDBF11E0A0E0B1E0E6E5F8E002C0D0
:1000A00005900D92A830B107D9F70E945B000C941F
:1000B00029040C940000CF93DF93CDB7DEB7C8546A
:1000C000D1090FB6F894DEBF0FBECDBFCE010196A9
:1000D0000E941E0360E875E2CE0141960E946A0309
:1000E000CE0101960E94200286E0E0E0F1E0DE0110
:1000F000AD5BBF4F01900D928A95E1F7CE0101965D
:100100000E94B2028823D1F3BE016D5B7F4FCE0106
:1001100001960E942D038C0129968FAD29978F5F40
:1001200029968FAF2997F8016081CE0141960E94F0
:10013000E703F8016181CE0141960E94E703F801CF
:100140006281CE0141960E94E703F8016381CE01EE
:1001500041960E94E703F8016481CE0141960E9416
:10016000E703F8016581CE0141960E94E70341E073
:1001700066E071E0CE0141960E947503BFCFF8940E
:100180008FE284B981E58CBD82E085B981E085B9D3
:10019000789408956EBD0DB407FEFDCF8EB5089519
:1001A000BF92CF92DF92EF92FF920F931F93CF9364
:1001B000DF937C016A01122FF89485E38A95F1F7A9
:1001C0000000F89415B8603551F0605EC7010E94D8
:1001D000CA00B82E8AE18A95F1F700C009C060EA2A
:1001E000C7010E94CA00B82E85E38A95F1F7000086
:1001F000112379F0E6011150012F10E00F5F1F4F1E
:100200000C0D1D1D6991C7010E94CA00C017D107BE
:10021000C9F782E085B985E38A95F1F70000789403
:100220008B2DDF91CF911F910F91FF90EF90DF9079
:10023000CF90BF900895FF920F931F93CF93DF93BA
:1002400000D000D01F92CDB7DEB78C01F8942FEF0D
:100250008BED95E0215080409040E1F700C0000018
:10026000FF24F394F98221E0AE014F5F5F4F61E01C
:10027000C8010E94D000F98221E0AE014F5F5F4FBC
:1002800062E0C8010E94D0000F2EF3E0FF2EF02D97
:10029000F98221E0AE014F5F5F4F63E0C8010E9429
:1002A000D000F98221E0AE014F5F5F4F65E0C801E9
:1002B0000E94D0008FE2898321E0AE014F5F5F4F43
:1002C00064E0C8010E94D00086E2898321E0AE018B
:1002D0004F5F5F4F66E0C8010E94D00085E18983CF
:1002E00085E38A8387E18B8385EC8C8382E38D832E
:1002F00025E0AE014F5F5F4F6AE0C8010E94D00069
:1003000025E0AE014F5F5F4F60E1C8010E94D00061
:1003100086E0898321E0AE014F5F5F4F61E1C80154
:100320000E94D00078940F900F900F900F900F9034
:10033000DF91CF911F910F91FF900895BF92CF92BF
:10034000DF92EF92FF920F931F93CF93DF937C0185
:100350006A01122F85E38A95F1F70000F89415B829
:100360008AE08A95F1F700C0603549F0C7010E9424
:10037000CA00B82E85E38A95F1F7000009C061E64E
:10038000C7010E94CA00B82E85E38A95F1F70000E4
:100390001123A1F0E6011150012F10E00F5F1F4F54
:1003A0000C0D1D1D6FEFC7010E94CA00899385E3E4
:1003B0008A95F1F70000C017D107A1F782E085B94F
:1003C00085E38A95F1F7000078948B2DDF91CF912A
:1003D0001F910F91FF90EF90DF90CF90BF90089505
:1003E000CF93DF93EC010E94BF00CE010E941B015E
:1003F0001B821A8219821882DF91CF910895CF93C0
:10040000DF93EC0185E38A95F1F7000015B885E3E9
:100410008A95F1F7000067E2CE010E94CA0085E3E9
:100420008A95F1F7000060E7CE010E94CA0085E3DB
:100430008A95F1F7000082E085B9DF91CF910895A8
:10044000CF93DF931F92CDB7DEB7F8942FE02983C7
:1004500021E0AE014F5F5F4F60E00E94D00015B811
:100460008FE39FE10197F1F700C0000078940F90AF
:10047000DF91CF910895EF92FF920F931F93CF9347
:10048000DF938C01EB0115B861E60E94CA0085E399
:100490008A95F1F700007E0186E0E80EF11C6FEF0F
:1004A000C8010E94CA00899385E38A95F1F700008C
:1004B000EC16FD06A1F782E085B985E38A95F1F790
:1004C0000000DF91CF911F910F91FF90EF90089561
:1004D000CF92DF92FF920F931F93CF93DF931F92E0
:1004E000CDB7DEB78C016B01F89421E0AE014F5F10
:1004F0005F4F67E10E949E018981982F9170F92ECC
:1005000080FD06C0B601C8010E943B02789420C05D
:1005100015B88AE08A95F1F700C062EEC8010E9422
:10052000CA0082E085B9C8010E94FF0181E085B957
:100530008FE39FE10197F1F700C0000026E0A601DC
:1005400060E5C8010E949E0115B87894FF24F394D9
:100550008F2D0F90DF91CF911F910F91FF90DF9022
:10056000CF9008951F93CF93DF93EC0115B86FEFF1
:100570000E94CA00182F81E085B98FE19EE401979F
:10058000F1F700C00000CE010E94FF0116FD04C07B
:1005900081E085B980E001C081E0DF91CF911F91BA
:1005A0000895CF93DF931F92CDB7DEB722E0298362
:1005B00021E0AE014F5F5F4F6DE10E94D0000F90D0
:1005C000DF91CF910895CF92DF92EF92FF920F9338
:1005D0001F93CF93DF937B01142FF89425E32A9583
:1005E000F1F7000015B8D82EC92E68EA0E94CA009B
:1005F00085E38A95F1F70000112381F0E70111509E
:10060000012F10E00F5F1F4F0E0D1F1D69918D2DE3
:100610009C2D0E94CA00C017D107C1F782E085B99E
:1006200025E32A95F1F700007894DF91CF911F918F
:100630000F91FF90EF90DF90CF900895CF93DF93CD
:10064000EC010E94F001CE010E94D1021B821A82AD
:1006500019821882DF91CF9108950F931F93CF9342
:10066000DF93EC0146E00E94E3028E01065F1F4F1C
:10067000B801CE010E946802C801DF91CF911F919D
:100680000F910895CB01A0E0B0E0880F991FAA1F39
:10069000BB1F880F991FAA1FBB1F9C01AD01220F12
:1006A000331F441F551F220F331F441F551F60E087
:1006B00074E284EF90E00E940104215031093093EC
:1006C000C5002093C40088E18093C10086E0809338
:1006D000C20008950E9442030895E0ECF0E080819A
:1006E00085FFFDCF6093C6000895FF920F931F937F
:1006F000CF93DF938C01EB01F42E4423A1F060E251
:100700000E946D036881662349F02196C8010E940A
:100710006D0369916111FACFFF2041F060E2C801D9
:100720000E946D0303C068816111EFCFDF91CF910B
:100730001F910F91FF900895462F50E040315105D1
:1007400008F044C0FA01EC5CFF4F0C94230460E312
:100750000E946D03089561E30E946D03089562E3B2
:100760000E946D03089563E30E946D03089564E39E
:100770000E946D03089565E30E946D03089566E38A
:100780000E946D03089567E30E946D03089568E376
:100790000E946D03089569E30E946D03089561E46A
:1007A0000E946D03089562E40E946D03089563E45E
:1007B0000E946D03089564E40E946D03089565E44A
:1007C0000E946D03089566E40E946D0308951F93CF
:1007D000CF93DF93EC01162F62956F700E949C03FC
:1007E000612F6F70CE010E949C036CE2CE010E94CB
:1007F0006D0360E2CE010E946D03DF91CF911F91E6
:100800000895A1E21A2EAA1BBB1BFD010DC0AA1F51
:10081000BB1FEE1FFF1FA217B307E407F50720F069
:10082000A21BB30BE40BF50B661F771F881F991FE4
:100830001A9469F760957095809590959B01AC012D
:10084000BD01CF010895EE0FFF1F0590F491E02D3B
:060850000994F894FFCFAB
:08085600EB12010000880A000A
:00000001FF
