:100000000C9435000C945D000C945D000C945D0024
:100010000C945D000C945D000C945D000C945D00EC
:100020000C945D000C945D000C945D000C945D00DC
:100030000C945D000C945D000C945D000C945D00CC
:100040000C945D000C945D000C945D000C945D00BC
:100050000C945D000C945D000C945D000C945D00AC
:100060000C945D000C945D00AB0011241FBECFEF1B
:10007000D8E0DEBFCDBF11E0A0E0B1E0EEE1F2E0FC
:1000800002C005900D92A030B107D9F721E0A0E0A1
:10009000B1E001C01D92A436B207E1F710E0C5E35C
:1000A000D0E004C02197FE010E940701C433D107AC
:1000B000C9F70E949E000C940D010C940000189941
:1000C000FECF189937C081EA91E00197F1F700C09F
:1000D000000020E030E080E0E0E090E061E070E0EF
:1000E000ABECB0E01197F1F700C00000189B08C01E
:1000F000AB01022E02C0440F551F0A94E2F701C063
:100100004E2F842BABECB0E01197F1F700C000004C
:100110002F5F3F4F2830310519F7B5E3BA95F1F756
:100120000000189B09C0E7E7F1E03197F1F700C044
:100130000000089580E0089580E0089587B183600D
:1001400087B980E091E00E945F00682F82E391E030
:100150000E94DD00F6CF60E875E282E391E00E9444
:10016000DA000895CB01A0E0B0E0880F991FAA1F24
:10017000BB1F880F991FAA1FBB1F9C01AD01220F37
:10018000331F441F551F220F331F441F551F60E0AC
:1001900074E284EF90E00E94E50021503109309331
:1001A000C5002093C40088E18093C10086E080935D
:1001B000C20008950E94B2000895E0ECF0E0808152
:1001C00085FFFDCF6093C6000895A1E21A2EAA1BF9
:1001D000BB1BFD010DC0AA1FBB1FEE1FFF1FA217F7
:1001E000B307E407F50720F0A21BB30BE40BF50BF4
:1001F000661F771F881F991F1A9469F7609570957D
:10020000809590959B01AC01BD01CF010895EE0F43
:0E021000FF1F0590F491E02D0994F894FFCFA4
:00000001FF
