S00B000047534D2E7372656332
S113000072C00000A0C000009EC000009CC00000A0
S11300109AC0000098C0000096C0000094C0000080
S113002092C0000090C000008EC000008CC0000090
S11300308AC0000088C0000086C0000084C00000A0
S113004082C0000080C000007EC000007CC00000B0
S11300507AC0000078C0000076C0000074C00000C0
S113006072C0000070C000006EC000006CC00000D0
S11300706AC0000068C0000066C0000064C00000E0
S113008062C0000060C000005EC000005CC00000F0
S11300905AC0000058C0000056C0000054C0000000
S11300A052C0000050C000004EC000004CC0000010
S11300B04AC0000048C0000046C0000044C0000020
S11300C042C0000040C000003EC000003CC0000030
S11300D03AC0000038C00000D0C1000034C00000A5
S11300E032C00000A40911241FBECFEFD1E2DEBF4D
S11300F0CDBF00E00CBF13E0A0E0B2E0E2ECF3E11E
S113010000E00BBF02C007900D92A637B107D9F7E4
S113011027E0A6E7B3E001C01D92A43EB207E1F7D1
S113012010E0C3E7D0E000E006C021970109802F6A
S1130130FE010E94D009C237D10780E00807A9F761
S113014056D40C94DF095CCF4F925F926F927F92EA
S11301508F929F92AF92BF92CF92DF92EF92FF92D3
S11301600F931F93CF93DF93CDB7DEB72E970FB6C0
S1130170F894DEBF0FBECDBF8C010F2EF5EC6F2EB1
S1130180712CF02DD3011C9264EC70E00F2EF7E675
S1130190EF2EF02DFB01E08241EC50E00F2EF8E150
S11301A0BF2EF02DDA01BC9222EC30E00F2EF6E0E7
S11301B0FF2EF02DF901F08285E391E0DC011C9221
S11301C0A4E3B1E0EC920F2EF8E9CF2EF02DE1E399
S11301D0F1E0C0820F2EF2E38F2E99249394F02D38
S11301E0F401F0820F2EF1E84F2E512CF02DF20184
S11301F0D080FD2DF560DF2EF201D082F301108254
S1130200FB01E082FA01B082F901F082FC01108264
S1130210EC92A1E3B1E0CC92F401F0828EE0E0E054
S1130220F2E0DE01119601900D928A95E1F77801D2
S1130230F2E8EF0EF11CBE016F5F7F4FC7010E9411
S1130240D809D7019C91992389F0A8014D575F4F94
S1130250E0E3F1E026E331E0808185FFFDCFD901C1
S11302609C93DA019D91AD019111F6CFE0E3F1E0A9
S1130270808185FFFDCF8DE080933601A8014A5827
S11302805D4F5A0160E070E0E0E3F1E00F2EF6E329
S1130290CF2EDD24D394F02D80818823ECF7D60172
S11302A08C916F5F7F4FD5018D935D018081882391
S11302B00CF0BDC0F1CF2081222374F3A7E5B2E096
S11302C01197F1F700C000000197A9F78AC0D8017F
S11302D0AA58BD4F772716161706C4F431E080E0FC
S11302E090E0D12CFD01E80FF91F20812F3451F447
S11302F0FD01E80FF91F21812B3409F0A1C00296FA
S1130300311104C001968617970764F38AE0EEE082
S1130310F2E0D70101900D928A95E1F7F801EE57CA
S1130320FF4F9081992389F0B8016D577F4FE0E327
S1130330F1E026E331E0808185FFFDCFD9019C9374
S1130340DB019D91BD019111F6CFE0E3F1E08081E5
S113035085FFFDCF8DE08093360160E070E0E0E33F
S1130360F1E00F2EF6E3EF2EFF24F394F02D8081BD
S11303708823ECF7D7018C916F5F7F4FDA018D935F
S1130380AD01808188230CF049C0F1CF2081222364
S113039074F3A7E5B2E01197F1F700C000000197EC
S11303A0A9F72EC00A581D4F7727161617060CF00A
S11303B04DC031E080E090E040E0F801E80FF91F23
S11303C020812F3449F4F801E80FF91F21812B34DF
S11303D0D1F5029631113AC00196861797076CF34E
S11303E035C0F801E60FF71FEA58FD4F1082772356
S11303F014F460E070E0161617060CF468CF86CF8C
S1130400F801E60FF71FEA58FD4F1082772314F422
S113041060E070E0161617062CF218C087E592E02B
S11304200197F1F700C0000083EF91E0AFCFA7E59B
S1130430B2E01197F1F700C0000083EF91E03BCFE9
S113044002963D2D5FCF0296342FC6CF2E960FB65F
S1130450F894DEBF0FBECDBFDF91CF911F910F91F6
S1130460FF90EF90DF90CF90BF90AF909F908F90D0
S11304707F906F905F904F9008951F920F920FB6E8
S11304800F9211240BB60F926F927F928F929F92CC
S1130490AF92BF92CF92DF92EF92FF920F931F938E
S11304A02F933F934F935F936F937F938F939F9378
S11304B0AF93BF93CF93DF93EF93FF93F8940F2EF3
S11304C0FCEEEF2EF5E0FF2EF02DD70140E050E0DA
S11304D0E0E3F1E066E371E0808188230CF052C22E
S11304E01CC2208122230CF418C2C7E5D2E0219754
S11304F0F1F700C000000197A1F715C255271416A3
S113050015060CF000C231E080E090E060E0FC01F0
S1130510E451FA4F20812F3451F4FC01E351FA4F96
S113052020812B3409F037C20296311105C201969D
S11305308417950764F332C2FC01E451FA4F208119
S11305402E3319F401963111FBC1019684179507D6
S11305509CF3C1E080E090E06DE172E0D0E0FC014A
S1130560E451FA4F2081253469F4DF01E8E1F2E037
S11305703D9121913213CD2F6E177F07C9F7059650
S1130580C111E2C10196841795074CF321E080E084
S113059090E0C2E2D2E070E0FC01E451FA4F308115
S11305A0323569F4DF01EEE1F2E06D9131916313CC
S11305B0272FCE17DF07C9F704962111C9C1019669
S11305C0841795074CF3C1E080E090E068E272E0A4
S11305D0D0E0FC01E451FA4F20812B3269F4DF01B1
S11305E0E3E2F2E03D9121913213CD2FE617F707B4
S11305F0C9F70596C11124C00196841795074CF3D9
S113060021E080E090E06DE272E030E0FC01E45132
S1130610FA4FE081E33579F4DC01A451BA4FE9E201
S1130620F2E0DD91C191DC13232FE617F707C9F738
S11306300496211105C00196841795073CF3DDC08B
S1130640EFEEF5E023E030E001C09C01C901019622
S113065041914C32D1F7FC01E451FA4F808190E092
S1130660C0979093E1078093E007F901E251FA4FB4
S1130670208130E0205331092A30310588F4AC015F
S1130680440F551F880F991F880F991F880F991FB2
S1130690840F951F820F931F9093E1078093E007C7
S11306A08091E0079091E10745970CF4A2C0F8947B
S11306B000EE17E060E074E00F2EFDEC8F2EF02DBD
S11306C00F2EF1E06F2EF4E07F2EF02DC0E3D1E089
S11306D046E351E00F2EFDE09F2EF02DA12CB12C0E
S11306E0CC24C394D12CF80180819181009709F422
S11306F07FC09C0121503109318320838A3068F402
S11307009AE0ECE2F2E0A8EFB3E001900D929A9542
S1130710E1F7805DDB018C931CC09BE0E6E3F2E033
S1130720A8EFB3E001900D929A95E1F7889D912D81
S1130730112496959695969520E3290FFB01208325
S1130740990F292F220F220F920F891B805DD3014D
S11307508C939091F803992351F0E9EFF3E08881A9
S113076085FFFDCFDA019C9391919111F8CF888197
S113077085FFFDCFFA019082F70120E030E0888107
S11307808823ECF7DA018C912F5F3F4F81938881A6
S113079088230CF0EEC0F3CFA881AA2384F3A7E545
S11307A0B2E01197F1F700C000000197A9F7D4C097
S11307B0C9019927181619060CF095CFAC2D20E025
S11307C030E0F901E451FA4FE081EF3459F4F901D2
S11307D0E351FA4FE081EB3409F0E4C02E5F3F4F60
S11307E0A11181CF2F5F3F4F2817390754F37BCFD7
S11307F0789484E08093E3078BC021E080E090E06C
S113080066E472E030E0FC01E451FA4FE081EB323F
S113081079F4DC01A451BA4FE1E4F2E0DD91C19135
S1130820DC13232FE617F707C9F70596211124C017
S11308300196841795073CF321E080E090E066E49C
S113084072E030E0FC01E451FA4FE081E33479F4E2
S1130850DC01A451BA4FE2E4F2E0DD91C191DC1372
S1130860232FE617F707C9F70496211105C001964F
S1130870841795073CF304C085E08093E30748C0E0
S113088021E080E090E06CE472E030E0FC01E451AF
S1130890FA4FE081EB3279F4DC01A451BA4FE7E47A
S11308A0F2E0DD91C191DC13232FE617F707C9F7B6
S11308B00596211124C00196841795073CF321E085
S11308C080E090E062E572E030E0FC01E451FA4F30
S11308D0E081EB3279F4DC01A451BA4FEDE4F2E0AB
S11308E0DD91C191DC13232FE617F707C9F70596AD
S11308F0211105C00196841795073CF304C086E0D6
S11309008093E30705C01092E30702C01092E30747
S113091081E08093E207789449C04F5F5F4FEB0119
S113092088818D93D9CDFA01E451FA4F10821416BF
S113093015060CF4E3CDEACF81E08093E3072EC0E3
S113094081E08093E307E4CF82E08093E307E0CF84
S113095083E08093E307DCCFF901E451FA4F10827E
S1130960332314F42A2D3B2D121613060CF420CF36
S1130970BACE87E592E00197F1F700C0000083EF5B
S113098091E00ACFC7E5D2E02197F1F700C000005B
S113099083EF91E0A6CD0296362FC9CD31E080E0F9
S11309A090E0CACD2E5F3F4FAD2D1CCFFF91EF914C
S11309B0DF91CF91BF91AF919F918F917F916F9173
S11309C05F914F913F912F911F910F91FF90EF9065
S11309D0DF90CF90BF90AF909F908F907F906F905B
S11309E00F900BBE0F900FBE0F901F901895CF93D2
S11309F0DF931F921F92CDB7DEB70F2EF5ECAF2E0B
S1130A00B12CF02DD5011C920F2EF4ECCF2ED12C4D
S1130A10F02D97E6F60190830F2EF1ECEF2EF12CDA
S1130A20F02D0F2EF8E18F2EF02DD7018C9202ECD1
S1130A3010E086E0F801808365E371E0DB011C923D
S1130A4044E351E0FA01908321E331E00F2EF8E909
S1130A509F2EF02DD9019C92E2E3F1E080837894FB
S1130A600F2EFBE07F2EF02DE4E5F3E0AAE8B3E0DF
S1130A7001900D927A94E1F70F2EFBE07F2EF02D7A
S1130A80EFE5F3E0A5E9B3E001900D927A94E1F784
S1130A900F2EFBE07F2EF02DEAE6F3E0A0EAB3E0B0
S1130AA001900D927A94E1F7D5011C92F60190839E
S1130AB0D7018C92F8018083DB011C92FA019083A8
S1130AC0D9019C92E2E3F1E080830F2EF2EE8F2EA7
S1130AD0F7E09F2EF02D0F2EF0ECEF2EF12CF02DE1
S1130AE084E690E00197F1F7D4018C91882309F40E
S1130AF00CC1E3EEF7E080811C921082843041F156
S1130B0018F4833041F001C1853009F405C1863001
S1130B1009F41FC1FAC0F701808185FFFCCF80E290
S1130B208093C600E4E5F2E082E726EC30E0D701EA
S1130B309C9195FFFCCFD9018C9381918111F7CFC2
S1130B40F701808185FFFCCF80E28093C600DDC081
S1130B50D7018C9185FFFCCF80E28093C600E4E648
S1130B60F2E083E526EC30E0D7019C9195FFFCCFC1
S1130B70D9018C9381918111F7CFF701808185FF91
S1130B80FCCF80E28093C600F89489E0E4E7F2E0C9
S1130B90A8EFB3E001900D928A95E1F712E2109369
S1130BA0000485E0EDE7F2E0A1E0B4E001900D92ED
S1130BB08A95E1F761EA73E085E094E0F9D3109354
S1130BC00E0410920F048091F803882371F0E9EF6A
S1130BD0F3E026E331E0A0E3B1E09C9195FFFBCF85
S1130BE0D9018C9381918111F6CFE0E3F1E080810A
S1130BF085FFFBCF8DE080933601ECEEF5E040E01D
S1130C0050E066E371E0A0E3B1E08C918823DCF767
S1130C10DB018C914F5F5F4F8193A0E3B1E08C9136
S1130C2088230CF07BC3EFCFA0E3B1E02C91222307
S1130C3054F3A7E5B2E01197F1F700C00000019763
S1130C4099F70DC3992718161906D4F441E020E04A
S1130C5030E050E0F901E451FA4F60816F3459F407
S1130C60F901E351FA4F60816B3409F060C32E5FE0
S1130C703F4F411105C02F5F3F4F2817390754F3E9
S1130C808CE6E2E8F2E0A8EFB3E001900D928A95D9
S1130C90E1F7109264048091F803882371F0E9EF7E
S1130CA0F3E026E331E0A0E3B1E09C9195FFFBCFB4
S1130CB0D9018C9381918111F6CFE0E3F1E0808139
S1130CC085FFFBCF8DE080933601E8EFF3E08AE106
S1130CD080831092F90378948081882371F0E9EF7E
S1130CE0F3E026E331E0A0E3B1E09C9195FFFBCF74
S1130CF0D9018C9381918111F6CFE0E3F1E08081F9
S1130D0085FFFBCF8DE0809336010F2EF6E3CF2EC7
S1130D10DD24D394F02D3AC0D7018C9185FFFCCF0C
S1130D2080E28093C600EFEEF2E083E526EC30E04B
S1130D30D7019C9195FFFCCFD9018C9381918111AE
S1130D40F7CFF701808185FFFCCF80E28093C60056
S1130D50DCCFD7018C9185FFFCCF80E28093C60065
S1130D60ECEFF2E084E626EC30E0D7019C9195FFAD
S1130D70FCCFD9018C9381918111F7CFF701808148
S1130D8085FFFCCF80E28093C600BFCF0F2EF6EC28
S1130D90AF2EB12CF02D0F2EF0EE2F2EF7E03F2EBC
S1130DA0F02D0F2EF1E04F2EF4E05F2EF02D0F2EDC
S1130DB0F2E06F2EF4E07F2EF02DD7018C91882382
S1130DC00CF0A3C25AC2F701208122230CF455C2AD
S1130DD0A7E5B2E01197F1F700C00000019799F779
S1130DE07FCEF89489E0E4E7F2E0A8EFB3E0019065
S1130DF00D928A95E1F712E21093000485E0EDE785
S1130E00F2E0D20101900D928A95E1F761EA73E074
S1130E1085E094E0CDD210930E0410920F049091CB
S1130E20F803992361F0E9EFF3E0A0E3B1E08C91DA
S1130E3085FFFBCFD6019C9391919111F6CFE0E30E
S1130E40F1E0808185FFFBCF8DE0D6018C93ECEE41
S1130E50F5E040E050E0A0E3B1E08C918823DCF7BA
S1130E60D6018C914F5F5F4F8193A0E3B1E08C91E9
S1130E7088230CF038C2EFCFA0E3B1E02C912223F9
S1130E8054F3A7E5B2E01197F1F700C00000019711
S1130E9099F7F9C1552714161506C4F431E080E01A
S1130EA090E060E0FC01E451FA4F20812F3451F4CA
S1130EB0FC01E351FA4F20812B3409F03CC2029625
S1130EC0311104C001968417950764F38EE2EDE0B6
S1130ED0F3E0A8EFB3E001900D928A95E1F7109248
S1130EE026049091F803992361F0E9EFF3E0A0E37D
S1130EF0B1E08C9185FFFBCFD6019C939191911128
S1130F00F6CFE0E3F1E0808185FFFBCF8DE0D601F1
S1130F108C93E8EFF3E08AE180831092F9037894EC
S1130F209081992361F0E9EFF3E0A0E3B1E08C91C3
S1130F3085FFFBCFD6019C9391919111F6CFE0E30D
S1130F40F1E0808185FFFBCF8DE0D6018C93F70122
S1130F50808185FFFCCF80E2D5018C93EFEEF2E037
S1130F6093E5D7018C9185FFFCCFD5019C9391919A
S1130F709111F7CFF701808185FFFCCF80E2D50185
S1130F808C931BCF8E3509F0DCC0F89489E0EBE339
S1130F90F3E0A8EFB3E001900D928A95E1F7F10137
S1130FA0808191818A30910544F06AE070E0D1D16A
S1130FB0605D60930004805D04C0805D80930004E4
S1130FC080E0D2018C93F30110829091F80399236D
S1130FD061F0E9EFF3E0A0E3B1E08C9185FFFBCF92
S1130FE0D6019C9391919111F6CFE0E3F1E08081D9
S1130FF085FFFBCF8DE0D6018C93ECEEF5E040E06D
S113100050E0A0E3B1E08C918823DCF7D6018C9109
S11310104F5F5F4F8193A0E3B1E08C9188230CF084
S11310206BC1EFCFA0E3B1E02C91222354F3A7E5E9
S1131030B2E01197F1F700C00000019799F730C1B1
S11310405527141615060CF068C031E080E090E0D6
S113105060E0FC01E451FA4F20812F3451F4FC018B
S1131060E351FA4F20812B3409F068C10296311103
S11310700CC001968417950764F352C0452B41F4C4
S1131080E0E0F0E04FC0C80105C08DE090E002C090
S11310908DE090E08C010F5F1F4FF801E451FA4F8F
S11310A02081223281F70F5F1F4FF801E451FA4F7C
S11310B020812B3241F79801F801E451FA4F0F5F78
S11310C01F4F41914A30D9F71A830983F801E4513B
S11310D0FA4F0F5F1F4F41914A30D9F7FC01E55099
S11310E0FA4F1082B90161517A4F8CEE95E060D1CC
S11310F080E38093EC058AE08093F605F801E451DF
S1131100FA4F108269817A8164517A4F87EF95E0B2
S11311104FD17894ECEEF5E005C0E0E0F0E002C0D9
S1131120E0E0F0E09081992309F447CE3196D701AD
S11311308C9185FFFCCFD5019C9391919111F7CFB0
S11311403CCE853209F039CE8AE0ECE2F2E0A8EF39
S1131150B3E001900D928A95E1F781E38093000456
S11311609091F803992361F0E9EFF3E0A0E3B1E093
S11311708C9185FFFBCFD6019C9391919111F6CF71
S1131180E0E3F1E0808185FFFBCF8DE0D6018C9315
S1131190ECEEF5E040E050E0A0E3B1E08C91882370
S11311A0DCF7D6018C914F5F5F4F8193A0E3B1E0F0
S11311B08C9188230CF08EC0EFCFA0E3B1E02C918A
S11311C0222354F3A7E5B2E01197F1F700C0000021
S11311D0019799F772C05527141615060CF0DBCD4C
S11311E031E080E090E060E0FC01E451FA4F2081BE
S11311F02F3451F4FC01E351FA4F20812B3409F0D0
S1131200A0C0029631110AC001968417950764F3B1
S1131210C2CD81E0452B19F480E001C081E0882330
S113122009F4B9CDF701808185FFFCCF80E280937A
S1131230C600E5E4F3E083E526EC30E0D7019C91B9
S113124095FFFCCFD9018C9381918111F7CFF701E0
S1131250808185FFFCCF80E28093C60097CDFA01A0
S1131260E451FA4F1082CA01992314F480E090E00B
S1131270181619060CF4E6CC03CDD5018C918632F0
S113128009F080CEAECDFA01E451FA4F1082552315
S113129014F440E050E0141615060CF4FBCD16CE01
S11312A0FA01E451FA4F1082552314F440E050E05F
S11312B0141615060CF4C4CEE1CEFA01E451FA4F2B
S11312C01082552314F440E050E0141615060CF473
S11312D082CF9FCF87E592E00197F1F700C000002D
S11312E083EF91E06ACFA7E5B2E01197F1F700C070
S11312F0000083EF91E0C0CD87E592E00197F1F71C
S113130000C0000083EF91E08DCEA7E5B2E0119715
S1131310F1F700C0000083EF91E055CD87E592E03E
S11313200197F1F700C0000083EF91E07DCC2E5FC0
S11313303F4F452FA0CC0296362FC4CD0296362FB0
S113134098CE0296362F60CF86E793E00C94A400E3
S1131350089597FB072E16F4009406D077FD08D065
S11313600BD007FC05D03EF4909581959F4F0895CE
S1131370709561957F4F0895AA1BBB1B51E107C06F
S1131380AA1FBB1FA617B70710F0A61BB70B881F11
S1131390991F5A95A9F780959095BC01CD010895A0
S11313A0EE0FFF1F881F8BBF0790F691E02D199455
S11313B0FB01DC0101900D920020E1F70895F894FF
S10513C0FFCF59
S11313C241542B435343533D2247534D220041542E
S11313D22B434D47463D31004552524F520052492C
S11313E24E47002B434D544900534D0041542B4367
S11313F24D47443D200041542B434D47443D20205A
S1131402002B434D4753002B4350494E002B434678
S1131412554E007265636569766564206120636177
S11314226C6C00534D532077617320726563656958
S11314327665640041542B434D47533D002B3937A5
S113144232005468616E6B20796F752C2074686564
S1131452206C6F636174696F6E2069730A4B6972E1
S1131462796174204269616C696B652044726F72A0
S113147220380A666F722046757274686572206934
S11314826E666F726D6174696F6E20706C656173E4
S1131492652063616C6C204B7269736F6F73682192
S11314A20A6E616161616161692121212100534DEB
S11314B253207761732073656E7400646576696383
S11314C2652072657374617274696E670054484969
S11314D25320697320612074657374206D61737382
S11314E2616765206E756D62657220333420616EAA
S11314F26420636F756E74696E670041542B434DAB
S113150247523D00534D53207761732064656C65E7
S11315127465640030353236313634323538003051
S113152235323738393933363100303532353330A4
S1091532383734380000D4
S9030000FC
